{
    "contractName": "Project",
    "abi": [
        {
            "inputs": [
                {
                    "internalType": "uint256",
                    "name": "projectID",
                    "type": "uint256"
                },
                {
                    "internalType": "address payable",
                    "name": "_projectStarter",
                    "type": "address"
                },
                {
                    "internalType": "string",
                    "name": "_projectTitle",
                    "type": "string"
                },
                {
                    "internalType": "string",
                    "name": "_projectDesc",
                    "type": "string"
                },
                {
                    "internalType": "uint256",
                    "name": "_fundRaisingDeadline",
                    "type": "uint256"
                },
                {
                    "internalType": "uint256",
                    "name": "_goalAmount",
                    "type": "uint256"
                },
                {
                    "internalType": "string",
                    "name": "_location",
                    "type": "string"
                },
                {
                    "internalType": "string",
                    "name": "_category",
                    "type": "string"
                }
            ],
            "stateMutability": "nonpayable",
            "type": "constructor"
        },
        {
            "anonymous": false,
            "inputs": [
                {
                    "indexed": false,
                    "internalType": "address",
                    "name": "recipient",
                    "type": "address"
                }
            ],
            "name": "CreatorPaid",
            "type": "event"
        },
        {
            "anonymous": false,
            "inputs": [
                {
                    "indexed": false,
                    "internalType": "address",
                    "name": "contributor",
                    "type": "address"
                },
                {
                    "indexed": false,
                    "internalType": "uint256",
                    "name": "amount",
                    "type": "uint256"
                },
                {
                    "indexed": false,
                    "internalType": "uint256",
                    "name": "currentTotal",
                    "type": "uint256"
                }
            ],
            "name": "FundingReceived",
            "type": "event"
        },
        {
            "inputs": [],
            "name": "amountGoal",
            "outputs": [
                {
                    "internalType": "uint256",
                    "name": "",
                    "type": "uint256"
                }
            ],
            "stateMutability": "view",
            "type": "function"
        },
        {
            "inputs": [],
            "name": "category",
            "outputs": [
                {
                    "internalType": "string",
                    "name": "",
                    "type": "string"
                }
            ],
            "stateMutability": "view",
            "type": "function"
        },
        {
            "inputs": [],
            "name": "checkIfFundingCompleteOrExpired",
            "outputs": [],
            "stateMutability": "nonpayable",
            "type": "function"
        },
        {
            "inputs": [],
            "name": "completeAt",
            "outputs": [
                {
                    "internalType": "uint256",
                    "name": "",
                    "type": "uint256"
                }
            ],
            "stateMutability": "view",
            "type": "function"
        },
        {
            "inputs": [],
            "name": "contribute",
            "outputs": [
                {
                    "internalType": "bool",
                    "name": "",
                    "type": "bool"
                }
            ],
            "stateMutability": "payable",
            "type": "function"
        },
        {
            "inputs": [
                {
                    "internalType": "address",
                    "name": "",
                    "type": "address"
                }
            ],
            "name": "contributions",
            "outputs": [
                {
                    "internalType": "uint256",
                    "name": "",
                    "type": "uint256"
                }
            ],
            "stateMutability": "view",
            "type": "function"
        },
        {
            "inputs": [
                {
                    "internalType": "string",
                    "name": "_desc",
                    "type": "string"
                },
                {
                    "internalType": "uint256",
                    "name": "_value",
                    "type": "uint256"
                },
                {
                    "internalType": "address payable",
                    "name": "_receipient",
                    "type": "address"
                }
            ],
            "name": "createRequest",
            "outputs": [
                {
                    "internalType": "bool",
                    "name": "",
                    "type": "bool"
                }
            ],
            "stateMutability": "nonpayable",
            "type": "function"
        },
        {
            "inputs": [],
            "name": "creator",
            "outputs": [
                {
                    "internalType": "address payable",
                    "name": "",
                    "type": "address"
                }
            ],
            "stateMutability": "view",
            "type": "function"
        },
        {
            "inputs": [],
            "name": "currentBalance",
            "outputs": [
                {
                    "internalType": "uint256",
                    "name": "",
                    "type": "uint256"
                }
            ],
            "stateMutability": "view",
            "type": "function"
        },
        {
            "inputs": [],
            "name": "deadline",
            "outputs": [
                {
                    "internalType": "uint256",
                    "name": "",
                    "type": "uint256"
                }
            ],
            "stateMutability": "view",
            "type": "function"
        },
        {
            "inputs": [],
            "name": "description",
            "outputs": [
                {
                    "internalType": "string",
                    "name": "",
                    "type": "string"
                }
            ],
            "stateMutability": "view",
            "type": "function"
        },
        {
            "inputs": [],
            "name": "getContractBalance",
            "outputs": [
                {
                    "internalType": "uint256",
                    "name": "",
                    "type": "uint256"
                }
            ],
            "stateMutability": "view",
            "type": "function"
        },
        {
            "inputs": [],
            "name": "getDetails",
            "outputs": [
                {
                    "internalType": "address payable",
                    "name": "projectStarter",
                    "type": "address"
                },
                {
                    "internalType": "string",
                    "name": "projectTitle",
                    "type": "string"
                },
                {
                    "internalType": "string",
                    "name": "projectDesc",
                    "type": "string"
                },
                {
                    "internalType": "uint256",
                    "name": "deadLine",
                    "type": "uint256"
                },
                {
                    "internalType": "enum Project.State",
                    "name": "currentState",
                    "type": "uint8"
                },
                {
                    "internalType": "uint256",
                    "name": "currentAmount",
                    "type": "uint256"
                },
                {
                    "internalType": "uint256",
                    "name": "goalAmount",
                    "type": "uint256"
                },
                {
                    "internalType": "string",
                    "name": "_location",
                    "type": "string"
                },
                {
                    "internalType": "string",
                    "name": "_category",
                    "type": "string"
                }
            ],
            "stateMutability": "view",
            "type": "function"
        },
        {
            "inputs": [
                {
                    "internalType": "uint256",
                    "name": "_requestId",
                    "type": "uint256"
                }
            ],
            "name": "getNoOfVoters",
            "outputs": [
                {
                    "internalType": "uint256",
                    "name": "",
                    "type": "uint256"
                }
            ],
            "stateMutability": "view",
            "type": "function"
        },
        {
            "inputs": [],
            "name": "getRefund",
            "outputs": [
                {
                    "internalType": "bool",
                    "name": "",
                    "type": "bool"
                }
            ],
            "stateMutability": "nonpayable",
            "type": "function"
        },
        {
            "inputs": [],
            "name": "location",
            "outputs": [
                {
                    "internalType": "string",
                    "name": "",
                    "type": "string"
                }
            ],
            "stateMutability": "view",
            "type": "function"
        },
        {
            "inputs": [],
            "name": "minimumContribution",
            "outputs": [
                {
                    "internalType": "uint256",
                    "name": "",
                    "type": "uint256"
                }
            ],
            "stateMutability": "view",
            "type": "function"
        },
        {
            "inputs": [],
            "name": "noOfContributors",
            "outputs": [
                {
                    "internalType": "uint256",
                    "name": "",
                    "type": "uint256"
                }
            ],
            "stateMutability": "view",
            "type": "function"
        },
        {
            "inputs": [],
            "name": "numRequests",
            "outputs": [
                {
                    "internalType": "uint256",
                    "name": "",
                    "type": "uint256"
                }
            ],
            "stateMutability": "view",
            "type": "function"
        },
        {
            "inputs": [],
            "name": "projectId",
            "outputs": [
                {
                    "internalType": "uint256",
                    "name": "",
                    "type": "uint256"
                }
            ],
            "stateMutability": "view",
            "type": "function"
        },
        {
            "inputs": [
                {
                    "internalType": "uint256",
                    "name": "",
                    "type": "uint256"
                }
            ],
            "name": "requests",
            "outputs": [
                {
                    "internalType": "string",
                    "name": "desc",
                    "type": "string"
                },
                {
                    "internalType": "uint256",
                    "name": "value",
                    "type": "uint256"
                },
                {
                    "internalType": "address payable",
                    "name": "receipient",
                    "type": "address"
                },
                {
                    "internalType": "bool",
                    "name": "status",
                    "type": "bool"
                },
                {
                    "internalType": "uint256",
                    "name": "noOfVoter",
                    "type": "uint256"
                }
            ],
            "stateMutability": "view",
            "type": "function"
        },
        {
            "inputs": [
                {
                    "internalType": "address payable",
                    "name": "_address",
                    "type": "address"
                },
                {
                    "internalType": "uint256",
                    "name": "_value",
                    "type": "uint256"
                },
                {
                    "internalType": "uint256",
                    "name": "_requestNo",
                    "type": "uint256"
                }
            ],
            "name": "sendPayoutRequest",
            "outputs": [
                {
                    "internalType": "bool",
                    "name": "",
                    "type": "bool"
                }
            ],
            "stateMutability": "nonpayable",
            "type": "function"
        },
        {
            "inputs": [],
            "name": "state",
            "outputs": [
                {
                    "internalType": "enum Project.State",
                    "name": "",
                    "type": "uint8"
                }
            ],
            "stateMutability": "view",
            "type": "function"
        },
        {
            "inputs": [],
            "name": "title",
            "outputs": [
                {
                    "internalType": "string",
                    "name": "",
                    "type": "string"
                }
            ],
            "stateMutability": "view",
            "type": "function"
        },
        {
            "inputs": [
                {
                    "internalType": "uint256",
                    "name": "_requestNo",
                    "type": "uint256"
                }
            ],
            "name": "voteRequest",
            "outputs": [
                {
                    "internalType": "bool",
                    "name": "",
                    "type": "bool"
                },
                {
                    "internalType": "uint256",
                    "name": "",
                    "type": "uint256"
                }
            ],
            "stateMutability": "nonpayable",
            "type": "function"
        }
    ],
    "bytecode": "6080604052600a805460ff191690553480156200001b57600080fd5b5060405162003344380380620033448339810160408190526200003e9162000268565b6000889055600180546001600160a01b0319166001600160a01b038916179055855162000073906006906020890190620000d8565b50845162000089906009906020880190620000d8565b50600283905560058490556000600c8190556004558151620000b3906007906020850190620000d8565b508051620000c9906008906020840190620000d8565b5050505050505050506200038f565b828054620000e69062000352565b90600052602060002090601f0160209004810192826200010a576000855562000155565b82601f106200012557805160ff191683800117855562000155565b8280016001018555821562000155579182015b828111156200015557825182559160200191906001019062000138565b506200016392915062000167565b5090565b5b8082111562000163576000815560010162000168565b80516001600160a01b03811681146200019657600080fd5b919050565b634e487b7160e01b600052604160045260246000fd5b600082601f830112620001c357600080fd5b81516001600160401b0380821115620001e057620001e06200019b565b604051601f8301601f19908116603f011681019082821181831017156200020b576200020b6200019b565b816040528381526020925086838588010111156200022857600080fd5b600091505b838210156200024c57858201830151818301840152908201906200022d565b838211156200025e5760008385830101525b9695505050505050565b600080600080600080600080610100898b0312156200028657600080fd5b885197506200029860208a016200017e565b60408a01519097506001600160401b0380821115620002b657600080fd5b620002c48c838d01620001b1565b975060608b0151915080821115620002db57600080fd5b620002e98c838d01620001b1565b965060808b0151955060a08b0151945060c08b01519150808211156200030e57600080fd5b6200031c8c838d01620001b1565b935060e08b01519150808211156200033357600080fd5b50620003428b828c01620001b1565b9150509295985092959890939650565b600181811c908216806200036757607f821691505b602082108114156200038957634e487b7160e01b600052602260045260246000fd5b50919050565b612fa5806200039f6000396000f3fe608060405260043610620001845760003560e01c806381d12c5811620000e2578063b2d5ae441162000095578063ce845d1d116200006c578063ce845d1d146200047d578063d7bb99ba1462000495578063ef430aa6146200049f578063fbbf93a014620004b757600080fd5b8063b2d5ae441462000415578063bc3b3fcb146200042d578063c19d93fb146200045257600080fd5b806381d12c58146200032957806386f3258614620003615780638a9cfd55146200037b578063937e09b114620003b157806398b34a2514620003c95780639fb42b1f14620003fd57600080fd5b80634c4cea5a116200013b5780634c4cea5a14620002775780634cb6f4a5146200028f5780634e260f6f14620002cc578063516f279e14620002e45780636f9fb98a14620002fc5780637284e416146200031157600080fd5b806302d05d3f14620001895780630785001c14620001c857806329dcb0cf14620001ef5780633fafa127146200020757806342e94c90146200021f5780634a79d50c1462000250575b600080fd5b3480156200019657600080fd5b50600154620001ab906001600160a01b031681565b6040516001600160a01b0390911681526020015b60405180910390f35b348015620001d557600080fd5b50620001e060025481565b604051908152602001620001bf565b348015620001fc57600080fd5b50620001e060055481565b3480156200021457600080fd5b50620001e060005481565b3480156200022c57600080fd5b50620001e06200023e3660046200109d565b600b6020526000908152604090205481565b3480156200025d57600080fd5b5062000268620004e6565b604051620001bf919062001114565b3480156200028457600080fd5b50620001e060035481565b3480156200029c57600080fd5b50620002b4620002ae36600462001129565b6200057c565b604080519215158352602083019190915201620001bf565b348015620002d957600080fd5b50620001e0600d5481565b348015620002f157600080fd5b506200026862000708565b3480156200030957600080fd5b5047620001e0565b3480156200031e57600080fd5b506200026862000717565b3480156200033657600080fd5b506200034e6200034836600462001129565b62000726565b604051620001bf95949392919062001143565b3480156200036e57600080fd5b5062000379620007f5565b005b3480156200038857600080fd5b50620003a06200039a366004620011ad565b62000833565b6040519015158152602001620001bf565b348015620003be57600080fd5b50620001e0600c5481565b348015620003d657600080fd5b50620001e0620003e836600462001129565b6000908152600e602052604090206003015490565b3480156200040a57600080fd5b50620001e0600f5481565b3480156200042257600080fd5b50620003a06200093d565b3480156200043a57600080fd5b50620003a06200044c36600462001284565b620009f0565b3480156200045f57600080fd5b50600a546200046e9060ff1681565b604051620001bf9190620012f5565b3480156200048a57600080fd5b50620001e060045481565b620003a062000b1c565b348015620004ac57600080fd5b506200026862000cec565b348015620004c457600080fd5b50620004cf62000cfb565b604051620001bf9998979695949392919062001305565b60068054620004f590620013a0565b80601f01602080910402602001604051908101604052809291908181526020018280546200052390620013a0565b8015620005745780601f10620005485761010080835404028352916020019162000574565b820191906000526020600020905b8154815290600101906020018083116200055657829003601f168201915b505050505081565b336000908152600b60205260408120548190620005ea5760405162461bcd60e51b815260206004820152602160248201527f796f75206d757374206265206120636f6e7472696275746f7220746f20766f746044820152606560f81b60648201526084015b60405180910390fd5b6000838152600e60205260409020600d546200060890600262000fa1565b8160030154106200061857600080fd5b33600090815260048201602052604090205460ff1615620006755760405162461bcd60e51b81526020600482015260166024820152751e5bdd481a185d9948185b1c9958591e481d9bdd195960521b6044820152606401620005e1565b6003810180549060006200068983620013f3565b90915550503360009081526004820160205260409020805460ff19166001179055600d54620006ba90600262000fa1565b816003015410620006f95760028101805460ff60a01b198116600160a01b179091556001820154620006f7916001600160a01b03169086620009f0565b505b60030154600094909350915050565b60078054620004f590620013a0565b60098054620004f590620013a0565b600e602052600090815260409020805481906200074390620013a0565b80601f01602080910402602001604051908101604052809291908181526020018280546200077190620013a0565b8015620007c25780601f106200079657610100808354040283529160200191620007c2565b820191906000526020600020905b815481529060010190602001808311620007a457829003601f168201915b5050505060018301546002840154600390940154929390926001600160a01b0382169250600160a01b90910460ff169085565b600254600454106200081457600a805460ff191660021790556200082d565b6005544211156200082d57600a805460ff191660011790555b42600355565b6000600280600a5460ff166002811115620008525762000852620012bc565b146200085d57600080fd5b6001546001600160a01b03163314620008b95760405162461bcd60e51b815260206004820152601f60248201527f6f6e6c79206d616e616765722063616e206372656174652052657175657374006044820152606401620005e1565b600454841115620008c957600080fd5b600f80546000818152600e602052604081209290620008e883620013f3565b9091555050855162000901908290602089019062000fd4565b5060018082018690556002820180546001600160a81b0319166001600160a01b038716179055600060039092019190915591505b509392505050565b6000600180600a5460ff1660028111156200095c576200095c620012bc565b146200096757600080fd5b336000908152600b60205260409020546200098157600080fd5b336000818152600b60205260408082208054908390559051909291829184156108fc0291859190818181858888f19350505050620009d35750336000908152600b602052604081209190915591505090565b600454620009e2908362000fb8565b6004556001935050505b5090565b6000600280600a5460ff16600281111562000a0f5762000a0f620012bc565b1462000a1a57600080fd5b6000838152600e60205260409020600d5462000a3890600262000fa1565b8160030154101562000a8d5760405162461bcd60e51b815260206004820152601c60248201527f636f6e646974696f6e206e6f742066756c6c66696c6c656420796574000000006044820152606401620005e1565b6040516001600160a01b0387169086156108fc029087906000818181858888f193505050501562000b11576040516001600160a01b03871681527f2f256415efc8561af8db667cb242964b19be7380f379ccdafaa0e54a6f6b70699060200160405180910390a160045462000b03908662000fb8565b600455506001915062000935565b600092505062000935565b60008080600a5460ff16600281111562000b3a5762000b3a620012bc565b1462000b4557600080fd5b6001546001600160a01b031633141562000ba25760405162461bcd60e51b815260206004820181905260248201527f50726f6a6563742063726561746f722063616e277420636f6e747269627574656044820152606401620005e1565b600c54341162000c055760405162461bcd60e51b815260206004820152602760248201527f4d696e696d756d20436f6e747269627574696f6e2073686f756c6420626520316044820152663030302077656960c81b6064820152608401620005e1565b336000908152600b602052604090205462000c21903462000fc6565b336000908152600b602052604090205560045462000c40903462000fc6565b600455600d805490600062000c5583620013f3565b90915550506004546040805133815234602082015280820192909252517f5cdc4ab8d637538ead6cc1904d4160343656c8c82bd266635cfd31ac008fffe09181900360600190a162000ca6620007f5565b3360405162000cb5906200105f565b6001600160a01b039091168152602001604051809103906000f08015801562000ce2573d6000803e3d6000fd5b5050600191505090565b60088054620004f590620013a0565b6000606080600080600080606080600160009054906101000a90046001600160a01b031698506006805462000d3090620013a0565b80601f016020809104026020016040519081016040528092919081815260200182805462000d5e90620013a0565b801562000daf5780601f1062000d835761010080835404028352916020019162000daf565b820191906000526020600020905b81548152906001019060200180831162000d9157829003601f168201915b505050505097506009805462000dc590620013a0565b80601f016020809104026020016040519081016040528092919081815260200182805462000df390620013a0565b801562000e445780601f1062000e185761010080835404028352916020019162000e44565b820191906000526020600020905b81548152906001019060200180831162000e2657829003601f168201915b505050505096506005549550600a60009054906101000a900460ff169450600454935060025492506007805462000e7b90620013a0565b80601f016020809104026020016040519081016040528092919081815260200182805462000ea990620013a0565b801562000efa5780601f1062000ece5761010080835404028352916020019162000efa565b820191906000526020600020905b81548152906001019060200180831162000edc57829003601f168201915b505050505091506008805462000f1090620013a0565b80601f016020809104026020016040519081016040528092919081815260200182805462000f3e90620013a0565b801562000f8f5780601f1062000f635761010080835404028352916020019162000f8f565b820191906000526020600020905b81548152906001019060200180831162000f7157829003601f168201915b50505050509050909192939495969798565b600062000faf828462001411565b90505b92915050565b600062000faf828462001434565b600062000faf82846200144e565b82805462000fe290620013a0565b90600052602060002090601f01602090048101928262001006576000855562001051565b82601f106200102157805160ff191683800117855562001051565b8280016001018555821562001051579182015b828111156200105157825182559160200191906001019062001034565b50620009ec9291506200106d565b611b06806200146a83390190565b5b80821115620009ec57600081556001016200106e565b6001600160a01b03811681146200109a57600080fd5b50565b600060208284031215620010b057600080fd5b8135620010bd8162001084565b9392505050565b6000815180845260005b81811015620010ec57602081850181015186830182015201620010ce565b81811115620010ff576000602083870101525b50601f01601f19169290920160200192915050565b60208152600062000faf6020830184620010c4565b6000602082840312156200113c57600080fd5b5035919050565b60a0815260006200115860a0830188620010c4565b6020830196909652506001600160a01b039390931660408401529015156060830152608090910152919050565b634e487b7160e01b600052604160045260246000fd5b8035620011a88162001084565b919050565b600080600060608486031215620011c357600080fd5b833567ffffffffffffffff80821115620011dc57600080fd5b818601915086601f830112620011f157600080fd5b81358181111562001206576200120662001185565b604051601f8201601f19908116603f0116810190838211818310171562001231576200123162001185565b816040528281528960208487010111156200124b57600080fd5b826020860160208301376000602084830101528097505050505050602084013591506200127b604085016200119b565b90509250925092565b6000806000606084860312156200129a57600080fd5b8335620012a78162001084565b95602085013595506040909401359392505050565b634e487b7160e01b600052602160045260246000fd5b60038110620012f157634e487b7160e01b600052602160045260246000fd5b9052565b6020810162000fb28284620012d2565b6001600160a01b038a168152610120602082018190526000906200132c8382018c620010c4565b9050828103604084015262001342818b620010c4565b9050886060840152620013596080840189620012d2565b8660a08401528560c084015282810360e0840152620013798186620010c4565b9050828103610100840152620013908185620010c4565b9c9b505050505050505050505050565b600181811c90821680620013b557607f821691505b60208210811415620013d757634e487b7160e01b600052602260045260246000fd5b50919050565b634e487b7160e01b600052601160045260246000fd5b60006000198214156200140a576200140a620013dd565b5060010190565b6000826200142f57634e487b7160e01b600052601260045260246000fd5b500490565b600082821015620014495762001449620013dd565b500390565b60008219821115620014645762001464620013dd565b50019056fe60806040523480156200001157600080fd5b5060405162001b0638038062001b068339810160408190526200003491620005b3565b6040805180820182526004808252634b49524160e01b60208084018281528551808701909652928552840152815191929162000073916000916200050d565b508051620000899060019060208401906200050d565b5050506000620000a560076200011960201b620007e31760201c565b9050620000b382826200011d565b620000fa816040518060400160405280601d81526020017f68747470733a2f2f6a736f6e6b65657065722e636f6d2f622f344553380000008152506200014360201b60201c565b620001116007620001ea60201b620007e71760201c565b5050620006f0565b5490565b6200013f828260405180602001604052806000815250620001f360201b60201c565b5050565b6000828152600260205260409020546001600160a01b0316620001c45760405162461bcd60e51b815260206004820152602e60248201527f45524337323155524953746f726167653a2055524920736574206f66206e6f6e60448201526d32bc34b9ba32b73a103a37b5b2b760911b60648201526084015b60405180910390fd5b60008281526006602090815260409091208251620001e5928401906200050d565b505050565b80546001019055565b620001ff838362000266565b6200020e6000848484620003ae565b620001e55760405162461bcd60e51b8152602060048201526032602482015260008051602062001ae683398151915260448201527131b2b4bb32b91034b6b83632b6b2b73a32b960711b6064820152608401620001bb565b6001600160a01b038216620002be5760405162461bcd60e51b815260206004820181905260248201527f4552433732313a206d696e7420746f20746865207a65726f20616464726573736044820152606401620001bb565b6000818152600260205260409020546001600160a01b031615620003255760405162461bcd60e51b815260206004820152601c60248201527f4552433732313a20746f6b656e20616c7265616479206d696e746564000000006044820152606401620001bb565b6001600160a01b038216600090815260036020526040812080546001929062000350908490620005e5565b909155505060008181526002602052604080822080546001600160a01b0319166001600160a01b03861690811790915590518392907fddf252ad1be2c89b69c2b068fc378daa952ba7f163c4a11628f55a4df523b3ef908290a45050565b6000620003cf846001600160a01b03166200050760201b620007f01760201c565b15620004fb57604051630a85bd0160e11b81526001600160a01b0385169063150b7a0290620004099033908990889088906004016200060c565b6020604051808303816000875af192505050801562000447575060408051601f3d908101601f19168201909252620004449181019062000687565b60015b620004e0573d80801562000478576040519150601f19603f3d011682016040523d82523d6000602084013e6200047d565b606091505b508051620004d85760405162461bcd60e51b8152602060048201526032602482015260008051602062001ae683398151915260448201527131b2b4bb32b91034b6b83632b6b2b73a32b960711b6064820152608401620001bb565b805181602001fd5b6001600160e01b031916630a85bd0160e11b149050620004ff565b5060015b949350505050565b3b151590565b8280546200051b90620006b3565b90600052602060002090601f0160209004810192826200053f57600085556200058a565b82601f106200055a57805160ff19168380011785556200058a565b828001600101855582156200058a579182015b828111156200058a5782518255916020019190600101906200056d565b50620005989291506200059c565b5090565b5b808211156200059857600081556001016200059d565b600060208284031215620005c657600080fd5b81516001600160a01b0381168114620005de57600080fd5b9392505050565b600082198211156200060757634e487b7160e01b600052601160045260246000fd5b500190565b600060018060a01b038087168352602081871681850152856040850152608060608501528451915081608085015260005b828110156200065b5785810182015185820160a0015281016200063d565b828111156200066e57600060a084870101525b5050601f01601f19169190910160a00195945050505050565b6000602082840312156200069a57600080fd5b81516001600160e01b031981168114620005de57600080fd5b600181811c90821680620006c857607f821691505b60208210811415620006ea57634e487b7160e01b600052602260045260246000fd5b50919050565b6113e680620007006000396000f3fe608060405234801561001057600080fd5b50600436106100cf5760003560e01c80636352211e1161008c578063a22cb46511610066578063a22cb465146101b3578063b88d4fde146101c6578063c87b56dd146101d9578063e985e9c5146101ec57600080fd5b80636352211e1461017757806370a082311461018a57806395d89b41146101ab57600080fd5b806301ffc9a7146100d457806306fdde03146100fc578063081812fc14610111578063095ea7b31461013c57806323b872dd1461015157806342842e0e14610164575b600080fd5b6100e76100e2366004610ef6565b610228565b60405190151581526020015b60405180910390f35b61010461027a565b6040516100f39190610f6b565b61012461011f366004610f7e565b61030c565b6040516001600160a01b0390911681526020016100f3565b61014f61014a366004610fb3565b6103a6565b005b61014f61015f366004610fdd565b6104bc565b61014f610172366004610fdd565b6104ed565b610124610185366004610f7e565b610508565b61019d610198366004611019565b61057f565b6040519081526020016100f3565b610104610606565b61014f6101c1366004611034565b610615565b61014f6101d4366004611086565b610624565b6101046101e7366004610f7e565b61065c565b6100e76101fa366004611162565b6001600160a01b03918216600090815260056020908152604080832093909416825291909152205460ff1690565b60006001600160e01b031982166380ac58cd60e01b148061025957506001600160e01b03198216635b5e139f60e01b145b8061027457506301ffc9a760e01b6001600160e01b03198316145b92915050565b60606000805461028990611195565b80601f01602080910402602001604051908101604052809291908181526020018280546102b590611195565b80156103025780601f106102d757610100808354040283529160200191610302565b820191906000526020600020905b8154815290600101906020018083116102e557829003601f168201915b5050505050905090565b6000818152600260205260408120546001600160a01b031661038a5760405162461bcd60e51b815260206004820152602c60248201527f4552433732313a20617070726f76656420717565727920666f72206e6f6e657860448201526b34b9ba32b73a103a37b5b2b760a11b60648201526084015b60405180910390fd5b506000908152600460205260409020546001600160a01b031690565b60006103b182610508565b9050806001600160a01b0316836001600160a01b0316141561041f5760405162461bcd60e51b815260206004820152602160248201527f4552433732313a20617070726f76616c20746f2063757272656e74206f776e656044820152603960f91b6064820152608401610381565b336001600160a01b038216148061043b575061043b81336101fa565b6104ad5760405162461bcd60e51b815260206004820152603860248201527f4552433732313a20617070726f76652063616c6c6572206973206e6f74206f7760448201527f6e6572206e6f7220617070726f76656420666f7220616c6c00000000000000006064820152608401610381565b6104b783836107f6565b505050565b6104c63382610864565b6104e25760405162461bcd60e51b8152600401610381906111d0565b6104b7838383610957565b6104b783838360405180602001604052806000815250610624565b6000818152600260205260408120546001600160a01b0316806102745760405162461bcd60e51b815260206004820152602960248201527f4552433732313a206f776e657220717565727920666f72206e6f6e657869737460448201526832b73a103a37b5b2b760b91b6064820152608401610381565b60006001600160a01b0382166105ea5760405162461bcd60e51b815260206004820152602a60248201527f4552433732313a2062616c616e636520717565727920666f7220746865207a65604482015269726f206164647265737360b01b6064820152608401610381565b506001600160a01b031660009081526003602052604090205490565b60606001805461028990611195565b610620338383610af7565b5050565b61062e3383610864565b61064a5760405162461bcd60e51b8152600401610381906111d0565b61065684848484610bc6565b50505050565b6000818152600260205260409020546060906001600160a01b03166106dd5760405162461bcd60e51b815260206004820152603160248201527f45524337323155524953746f726167653a2055524920717565727920666f72206044820152703737b732bc34b9ba32b73a103a37b5b2b760791b6064820152608401610381565b600082815260066020526040812080546106f690611195565b80601f016020809104026020016040519081016040528092919081815260200182805461072290611195565b801561076f5780601f106107445761010080835404028352916020019161076f565b820191906000526020600020905b81548152906001019060200180831161075257829003601f168201915b50505050509050600061078d60408051602081019091526000815290565b90508051600014156107a0575092915050565b8151156107d25780826040516020016107ba929190611221565b60405160208183030381529060405292505050919050565b6107db84610bf9565b949350505050565b5490565b80546001019055565b3b151590565b600081815260046020526040902080546001600160a01b0319166001600160a01b038416908117909155819061082b82610508565b6001600160a01b03167f8c5be1e5ebec7d5bd14f71427d1e84f3dd0314c0f7b2291e5b200ac8c7c3b92560405160405180910390a45050565b6000818152600260205260408120546001600160a01b03166108dd5760405162461bcd60e51b815260206004820152602c60248201527f4552433732313a206f70657261746f7220717565727920666f72206e6f6e657860448201526b34b9ba32b73a103a37b5b2b760a11b6064820152608401610381565b60006108e883610508565b9050806001600160a01b0316846001600160a01b031614806109235750836001600160a01b03166109188461030c565b6001600160a01b0316145b806107db57506001600160a01b0380821660009081526005602090815260408083209388168352929052205460ff166107db565b826001600160a01b031661096a82610508565b6001600160a01b0316146109d25760405162461bcd60e51b815260206004820152602960248201527f4552433732313a207472616e73666572206f6620746f6b656e2074686174206960448201526839903737ba1037bbb760b91b6064820152608401610381565b6001600160a01b038216610a345760405162461bcd60e51b8152602060048201526024808201527f4552433732313a207472616e7366657220746f20746865207a65726f206164646044820152637265737360e01b6064820152608401610381565b610a3f6000826107f6565b6001600160a01b0383166000908152600360205260408120805460019290610a68908490611266565b90915550506001600160a01b0382166000908152600360205260408120805460019290610a9690849061127d565b909155505060008181526002602052604080822080546001600160a01b0319166001600160a01b0386811691821790925591518493918716917fddf252ad1be2c89b69c2b068fc378daa952ba7f163c4a11628f55a4df523b3ef91a4505050565b816001600160a01b0316836001600160a01b03161415610b595760405162461bcd60e51b815260206004820152601960248201527f4552433732313a20617070726f766520746f2063616c6c6572000000000000006044820152606401610381565b6001600160a01b03838116600081815260056020908152604080832094871680845294825291829020805460ff191686151590811790915591519182527f17307eab39ab6107e8899845ad3d59bd9653f200f220920489ca2b5937696c31910160405180910390a3505050565b610bd1848484610957565b610bdd84848484610ce1565b6106565760405162461bcd60e51b815260040161038190611295565b6000818152600260205260409020546060906001600160a01b0316610c785760405162461bcd60e51b815260206004820152602f60248201527f4552433732314d657461646174613a2055524920717565727920666f72206e6f60448201526e3732bc34b9ba32b73a103a37b5b2b760891b6064820152608401610381565b6000610c8f60408051602081019091526000815290565b90506000815111610caf5760405180602001604052806000815250610cda565b80610cb984610ddf565b604051602001610cca929190611221565b6040516020818303038152906040525b9392505050565b60006001600160a01b0384163b15610dd457604051630a85bd0160e11b81526001600160a01b0385169063150b7a0290610d259033908990889088906004016112e7565b6020604051808303816000875af1925050508015610d60575060408051601f3d908101601f19168201909252610d5d91810190611324565b60015b610dba573d808015610d8e576040519150601f19603f3d011682016040523d82523d6000602084013e610d93565b606091505b508051610db25760405162461bcd60e51b815260040161038190611295565b805181602001fd5b6001600160e01b031916630a85bd0160e11b1490506107db565b506001949350505050565b606081610e035750506040805180820190915260018152600360fc1b602082015290565b8160005b8115610e2d5780610e1781611341565b9150610e269050600a83611372565b9150610e07565b60008167ffffffffffffffff811115610e4857610e48611070565b6040519080825280601f01601f191660200182016040528015610e72576020820181803683370190505b5090505b84156107db57610e87600183611266565b9150610e94600a86611386565b610e9f90603061127d565b60f81b818381518110610eb457610eb461139a565b60200101906001600160f81b031916908160001a905350610ed6600a86611372565b9450610e76565b6001600160e01b031981168114610ef357600080fd5b50565b600060208284031215610f0857600080fd5b8135610cda81610edd565b60005b83811015610f2e578181015183820152602001610f16565b838111156106565750506000910152565b60008151808452610f57816020860160208601610f13565b601f01601f19169290920160200192915050565b602081526000610cda6020830184610f3f565b600060208284031215610f9057600080fd5b5035919050565b80356001600160a01b0381168114610fae57600080fd5b919050565b60008060408385031215610fc657600080fd5b610fcf83610f97565b946020939093013593505050565b600080600060608486031215610ff257600080fd5b610ffb84610f97565b925061100960208501610f97565b9150604084013590509250925092565b60006020828403121561102b57600080fd5b610cda82610f97565b6000806040838503121561104757600080fd5b61105083610f97565b91506020830135801515811461106557600080fd5b809150509250929050565b634e487b7160e01b600052604160045260246000fd5b6000806000806080858703121561109c57600080fd5b6110a585610f97565b93506110b360208601610f97565b925060408501359150606085013567ffffffffffffffff808211156110d757600080fd5b818701915087601f8301126110eb57600080fd5b8135818111156110fd576110fd611070565b604051601f8201601f19908116603f0116810190838211818310171561112557611125611070565b816040528281528a602084870101111561113e57600080fd5b82602086016020830137600060208483010152809550505050505092959194509250565b6000806040838503121561117557600080fd5b61117e83610f97565b915061118c60208401610f97565b90509250929050565b600181811c908216806111a957607f821691505b602082108114156111ca57634e487b7160e01b600052602260045260246000fd5b50919050565b60208082526031908201527f4552433732313a207472616e736665722063616c6c6572206973206e6f74206f6040820152701ddb995c881b9bdc88185c1c1c9bdd9959607a1b606082015260800190565b60008351611233818460208801610f13565b835190830190611247818360208801610f13565b01949350505050565b634e487b7160e01b600052601160045260246000fd5b60008282101561127857611278611250565b500390565b6000821982111561129057611290611250565b500190565b60208082526032908201527f4552433732313a207472616e7366657220746f206e6f6e20455243373231526560408201527131b2b4bb32b91034b6b83632b6b2b73a32b960711b606082015260800190565b6001600160a01b038581168252841660208201526040810183905260806060820181905260009061131a90830184610f3f565b9695505050505050565b60006020828403121561133657600080fd5b8151610cda81610edd565b600060001982141561135557611355611250565b5060010190565b634e487b7160e01b600052601260045260246000fd5b6000826113815761138161135c565b500490565b6000826113955761139561135c565b500690565b634e487b7160e01b600052603260045260246000fdfea26469706673582212208f23628084b0d446614bbb1938447b80ea87b2c4af2adb548b4608a37d7457fa64736f6c634300080a00334552433732313a207472616e7366657220746f206e6f6e204552433732315265a26469706673582212201aa3923c2905714f8ac319958c0fda7d78eea381f44f0b082b19f48f1180e7a664736f6c634300080a0033",
    "sourcePath": "/home/harsh/B/solidity/Crowdfunding/crowdfunding_contract/contracts/crowdfunding.sol",
    "compiler": {
        "name": "solc",
        "version": "0.8.10+commit.fc410830"
    },
    "functionHashes": {
        "amountGoal()": "0785001c",
        "category()": "ef430aa6",
        "checkIfFundingCompleteOrExpired()": "86f32586",
        "completeAt()": "4c4cea5a",
        "contribute()": "d7bb99ba",
        "contributions(address)": "42e94c90",
        "createRequest(string,uint256,address)": "8a9cfd55",
        "creator()": "02d05d3f",
        "currentBalance()": "ce845d1d",
        "deadline()": "29dcb0cf",
        "description()": "7284e416",
        "getContractBalance()": "6f9fb98a",
        "getDetails()": "fbbf93a0",
        "getNoOfVoters(uint256)": "98b34a25",
        "getRefund()": "b2d5ae44",
        "location()": "516f279e",
        "minimumContribution()": "937e09b1",
        "noOfContributors()": "4e260f6f",
        "numRequests()": "9fb42b1f",
        "projectId()": "3fafa127",
        "requests(uint256)": "81d12c58",
        "sendPayoutRequest(address,uint256,uint256)": "bc3b3fcb",
        "state()": "c19d93fb",
        "title()": "4a79d50c",
        "voteRequest(uint256)": "4cb6f4a5"
    },
    "gasEstimates": {
        "creation": {
            "codeDepositCost": "2439400",
            "executionCost": "infinite",
            "totalCost": "infinite"
        },
        "external": {
            "amountGoal()": "2341",
            "category()": "infinite",
            "checkIfFundingCompleteOrExpired()": "52866",
            "completeAt()": "2318",
            "contribute()": "infinite",
            "contributions(address)": "2625",
            "createRequest(string,uint256,address)": "infinite",
            "creator()": "2350",
            "currentBalance()": "2339",
            "deadline()": "2363",
            "description()": "infinite",
            "getContractBalance()": "305",
            "getDetails()": "infinite",
            "getNoOfVoters(uint256)": "2555",
            "getRefund()": "infinite",
            "location()": "infinite",
            "minimumContribution()": "2384",
            "noOfContributors()": "2362",
            "numRequests()": "2428",
            "projectId()": "2385",
            "requests(uint256)": "infinite",
            "sendPayoutRequest(address,uint256,uint256)": "infinite",
            "state()": "2474",
            "title()": "infinite",
            "voteRequest(uint256)": "infinite"
        }
    }
}